:1000000012C019C018C017C016C015C014C013C044
:1000100012C011C010C00FC00EC00DC00CC00BC06C
:100020000AC009C008C011241FBECFE5D4E0DEBF5E
:10003000CDBF02D03EC0E4CFCF93DF93CDB7DEB7C4
:1000400028970FB6F894DEBF0FBECDBF8FEF8F831A
:1000500018869F818F819695969589238F838F81AE
:10006000809588879F8181B3892B81BB81E08983BB
:1000700082E08A8384E08B8388E08C8380E18D83B7
:1000800080E28E838F8182BB80E090E0388522B34E
:10009000232322BBE1E0F0E0EC0FFD1FE80FF91F86
:1000A000308122B3232B22BB01968630910571F754
:0600B000EBCFF894FFCF36
:00000001FF
